:020000040800F2
:10000000A0200020010100088D0F00088F0F0008BC
:10001000930F0008970F00089B0F000800000000D6
:100020000000000000000000000000009F0F00081A
:10003000A10F000800000000A30F0008A50F000892
:100040001B0100081B0100081B0100081B01000820
:100050001B0100081B0100081B0100081B01000810
:100060001B0100081B0100081B0100081B01000800
:100070001B0100081B0100081B0100081B010008F0
:100080001B0100081B0100081B0100081B010008E0
:100090001B0100081B0100081B0100081B010008D0
:1000A0001B0100081B0100081B0100081B010008C0
:1000B0001B0100081B0100081B0100081B010008B0
:1000C0001B0100081B0100081B0100081B010008A0
:1000D0001B010008B91000081B0100081B010008E3
:1000E0001B0100081B0100081B010008DFF80CD0F1
:1000F00001F084FB00480047E90E0008A020002022
:100100000648804706480047FEE7FEE7FEE7FEE7B1
:10011000FEE7FEE7FEE7FEE7FEE7FEE70302000874
:10012000ED0000080CB50020019000906C480068BC
:1001300040F480306A49086000BF6948006800F4F4
:10014000003000900198401C0190009818B9019867
:10015000B0F5A06FF1D16248006800F4003010B132
:100160000120009001E0002000900098012843D178
:100170005C48006840F010005A4908600846006872
:1001800020F0030008600846006840F002000860A4
:1001900053484068524948600846406848600846ED
:1001A000406840F4806048600846406820F47C1055
:1001B00048600846406840F4E81048600846006817
:1001C00040F08070086000BF4548006800F0007093
:1001D0000028F9D04248406820F0030040494860B8
:1001E0000846406840F00200486000BF3C48406854
:1001F00000F00C000828F9D10CBD10B5FFF792FFF4
:1002000010BD10B53648006840F001003449086060
:10021000084640683449084031494860084600684B
:10022000324908402E4908600846006820F48020C2
:1002300008600846406820F4FE0048604FF41F0044
:100240008860FFF7DAFF4FF000602949086010BDB1
:1002500010B5002100200022214B5B6803F00C0147
:1002600021B1042906D0082928D107E0214B224CCE
:10027000236027E01F4B204C236023E0184B5B6872
:1002800003F47010164B5B6803F48032022303EB17
:10029000904022B9194B4343174C23600DE0104B9B
:1002A0005B6803F4003323B1144B4343124C2360C7
:1002B00003E0104B4343104C236003E00D4B0E4C06
:1002C000236000BF00BF064B5B68C3F303130C4CF5
:1002D000E15C094B1B68CB40074C236010BD00005C
:1002E00000100240002002400000FFF8FFFFF6FE71
:1002F00008ED00E000127A000000002000093D0037
:100300000400002031490143314A1160704770B543
:10031000002100230F22C47804B32D4C246804F478
:10032000E064C4F5E064210AC1F10403CA404478E2
:1003300004FA03F18478144021430901254C06781E
:10034000A155047804F01F050124AC4005786D1117
:10035000AD0005F1E025C5F8004109E0047804F09E
:100360001F050124AC401C4D0678761145F8264047
:1003700070BD1A4A0A400243154B1B1F1A60704792
:1003800039B1134A121D12680243114B1B1D1A602A
:1003900006E00F4A121D126882430D4B1B1D1A60A6
:1003A0007047042808D14FF0E021096941F00401A9
:1003B0004FF0E022116107E04FF0E021096921F0E0
:1003C00004014FF0E0221161704700000000FA05BF
:1003D0000CED00E000E400E080E100E080FFFF1FA2
:1003E00010B50446CC48844208D10121042000F015
:1003F0002DFB0021042000F029FB46E0C748844281
:1004000008D10121082000F021FB0021082000F084
:100410001DFB3AE0C248844208D10121102000F0BF
:1004200015FB0021102000F011FB2EE0BD48844296
:1004300008D10121202000F009FB0021202000F03C
:1004400005FB22E0B848844208D10121402000F099
:10045000FDFA0021402000F0F9FA16E0B34884428A
:1004600008D10121802000F0F1FA0021802000F065
:10047000EDFA0AE0AE48844207D10121801500F070
:10048000E5FA0021A01500F0E1FA10BD10B5012138
:10049000084600F0DBFA0021012000F0D7FA10BD79
:1004A0002DE9F0410246002500260020002300240B
:1004B000002791F803C00CF00F0591F803C00CF071
:1004C000100CBCF1000F03D091F802C04CEA0505F6
:1004D00091F800C0BCF1000F31D0146800202BE06F
:1004E0004FF0010C0CFA00F3B1F800C00CEA03065F
:1004F0009E4220D183004FF00F0C0CFA03F7BC434F
:1005000005FA03FC4CEA040491F803C0BCF1280F7F
:1005100006D14FF0010C0CFA00FCC2F814C00AE03E
:1005200091F803C0BCF1480F05D14FF0010C0CFA53
:1005300000FCC2F810C0401C0828D1D31460B1F8E8
:1005400000C0BCF1FF0F34DD546800202EE000F144
:10055000080C4FF0010808FA0CF3B1F800C00CEADF
:1005600003069E4221D183004FF00F0C0CFA03F7D3
:10057000BC4305FA03FC4CEA040491F803C0BCF147
:10058000280F05D100F1080C08FA0CF8C2F8148005
:1005900091F803C0BCF1480F07D100F1080C4FF0EF
:1005A000010808FA0CF8C2F81080401C0828CED3C5
:1005B0005460BDE8F0814FF6FF7101800221817027
:1005C0000421C17070470246002093680B400BB1B4
:1005D000012000E0002070470146886880B2704723
:1005E00002460020D3680B400BB1012000E0002040
:1005F00070470146C86880B2704701617047416129
:1006000070470AB1016100E041617047C160704705
:100610004FF480320A43826181618261826982691A
:10062000704702460020434B18684FF6807318400D
:1006300040EA021008433F4B186070473E49C861CA
:100640007047F0B50A46002300240021002500F081
:100650000046B6F1004F02D1364EF16901E0354E49
:100660007168C0F3034583B200F44016B6F5401F2D
:1006700008D121F070612F4E766826F070662D4FFC
:100680007E6012E000F48016B6F5801F06D10326C6
:1006900006FA05F4A14341F0706106E0460D36010B
:1006A00003FA06F6B14341F0706122B1460D3601FE
:1006B00003FA06F6314300F00046B6F1004F02D1CE
:1006C0001C4EF16101E01B4E7160F0BD30B500229F
:1006D0008B071C0F0F2303FA04F2164B08338C1000
:1006E00053F824309343134C08348D1044F82530CC
:1006F00023468C1053F824308C07240F00FA04F49E
:1007000023430C4C08348D1044F8253030BD0A4981
:10071000DC3108607047000000080140000C014017
:10072000001001400014014000180140001C01406D
:10073000002001400000014000002042DF48006826
:1007400040F00100DD49086008464068DC49084087
:10075000DA49486008460068DA490840D749086025
:100760000846006820F4802008600846406820F4AD
:10077000FE0048604FF41F0088607047CF49096849
:1007800021F48031CD4A11601146096821F480219D
:100790001160B0F5803F03D0B0F5802F0ED106E098
:1007A000C649096841F48031C44A116007E0C34971
:1007B000096841F4A021C14A116000E000BF00BFF8
:1007C000704710B501460022002300204A11012A7B
:1007D00002D1BA4C236806E0022A02D1B74C236A40
:1007E00001E0B64C636A01F01F02012494401C40F2
:1007F0000CB1012000E0002010BD38B500200090B1
:100800000024002500BF3120FFF7DBFF05460098DC
:10081000401C00900098B0F5A06F01D0002DF2D0E0
:100820003120FFF7CEFF08B1012400E0002420466C
:1008300038BD01460020A14A106820F0F80040EAC7
:10084000C10010607047A049086070470246002050
:100850009A4B586820F47C1042EA01031843974BE6
:100860005860704798490866704701460020934ACF
:10087000506820F003000843506070478F4840687C
:1008800000F00C007047014600208C4A506820F0B0
:10089000F00008435060704701460020874A5068C6
:1008A00020F4E06008435060704701460020834A0E
:1008B000506820F4605040EAC1005060704729B190
:1008C0007E4A527A02437D4B5A7204E07B4A527A46
:1008D00082437A4B5A7270477B49D831086070471F
:1008E00001460020754A506820F44040084350609B
:1008F00070470021714A20321170704A82F820102E
:10090000012802D004280AD104E001216B4A2032D8
:10091000117005E00521694A2032117000E000BF26
:1009200000BF70476949086070476449096A01431C
:10093000624A11627047654944390860704730B5B2
:1009400000210022002400235C4D6D6805F00C019D
:1009500021B1042905D0082923D105E05C4D0560AB
:1009600022E05B4D05601FE0544D6D6805F4701288
:10097000524D6D6805F48034022505EB92421CB996
:10098000544D554305600BE04C4D6D6805F4003542
:100990001DB1504D5543056002E04D4D5543056076
:1009A00002E04B4D056000BF00BF444D6D6805F08F
:1009B000F0010909484D6B5C0568DD4045603F4D1D
:1009C0006D6805F4E061090A434D6B5C4568DD40E4
:1009D00085603A4D6D6805F46051C90A3E4D6B5C07
:1009E0004568DD40C560354D6D6805F44041890BB3
:1009F0003A4D6B5CC568B5FBF3F5056130BD29B1B7
:100A00002E4A526902432D4B5A6104E02B4A526927
:100A100082432A4B5A61704729B1284A926902439E
:100A2000264B9A6104E0254A92698243234B9A61DE
:100A3000704729B1214AD2690243204BDA6104E0B0
:100A40001E4AD26982431D4BDA61704729B11B4AA5
:100A5000D2680243194BDA6004E0184AD268824334
:100A6000164BDA60704729B1144A12690243134BDE
:100A70001A6104E0114A12698243104B1A617047EF
:100A800012494039086070470F49C86470470B49E4
:100A9000C87170470948406A40F080700749486251
:100AA000704701460020054A92680A400AB10120B9
:100AB00000E0002070470149887270470010024032
:100AC0000000FFF8FFFFF6FE0000424280044242B1
:100AD00000127A0000093D001400002024000020CC
:100AE00010B50446FB48844209D101218803FFF771
:100AF000ADFF00214FF48040FFF7A8FF32E0F64839
:100B0000844209D101214804FFF7ADFF00214FF4D1
:100B10000030FFF7A8FF25E0F048844209D1012109
:100B20008804FFF7A0FF00214FF48020FFF79BFF10
:100B300018E0EB48844209D10121C804FFF793FF74
:100B400000214FF40020FFF78EFF0BE0E5488442C0
:100B500008D101210805FFF786FF00214FF480101E
:100B6000FFF781FF10BD2DE9F04786B005460E4620
:100B70000024A24600BFA1460027B08900B100BFF3
:100B80002F462C8A4CF6FF700440F08804432C82D8
:100B9000AC894EF6F3100440B0883189084371895E
:100BA00008430443AC81AC8A4FF6FF400440B0894F
:100BB0000443AC8201A8FFF7C2FEC648874202D1B7
:100BC000DDF810A001E0DDF80CA0A88900F40040D9
:100BD00040B10AEBCA0000EB0A1031684900B0FBD3
:100BE000F1F807E00AEBCA0000EB0A10316889004F
:100BF000B0FBF1F86420B8FBF0F004012009642197
:100C000001FB1089A88900F4004040B1322000EBBC
:100C1000C900B0FBF1F000F00700044308E0322007
:100C200000EB09106421B0FBF1F000F00F00044369
:100C30002C8106B0BDE8F0874FF416510160002109
:100C40008180C18001810C21418100218181704717
:100C500010B502460020108A4FF2FF0318400B889F
:100C60004C8823438C882343CC8823431843108229
:100C700010BD0021018041808180C180704721B179
:100C8000828942F40052828104E082894DF6FF732A
:100C90001A4082817047F0B50346002400260025E3
:100CA000002040F66A17B94200D100BF1846C1F3D0
:100CB000421401F01F06012707FA06F5012C01D1A5
:100CC0000C3004E0022C01D1103000E014301AB1D5
:100CD00007682F43076002E00768AF430760F0BD75
:100CE0001AB1838A0B43838202E0838A8B43838217
:100CF0007047028A4FF6F0731A400282028A0A4352
:100D00000282704782894FF2FF731A408281828982
:100D10000A438281704721B1828942F002028281B6
:100D200004E082894FF6FD731A4082817047028A7F
:100D30004FF6DF731A400282028A0A43028270472A
:100D400021B1028A42F48042028204E0028A4BF618
:100D5000FF731A4002827047C1F308028280704715
:100D600001468888C0F308007047818941F001017D
:100D700081817047028BD2B20283028B42EA012248
:100D800002837047028B02F47F420283028B0A4384
:100D90000283704721B1828A42F02002828204E0FD
:100DA000828A4FF6DF731A408282704721B1828AAD
:100DB00042F01002828204E0828A4FF6EF731A40FA
:100DC0008282704721B1828A42F00802828204E066
:100DD000828A4FF6F7731A408282704721B1828966
:100DE00042F40042828103E08289C2F30E028281D2
:100DF000704721B1828A42F40062828204E0828AD2
:100E00004FF2FF731A4082827047828A4FF6FB735B
:100E10001A408282828A0A438282704721B1828A82
:100E200042F00202828204E0828A4FF6FD731A4089
:100E30008282704702460020B1F5007F00D100BFDA
:100E400013880B400BB1012000E00020704701F433
:100E50000072B2F5007F00D100BFCA430280704724
:100E600070B50246002400230025002040F66A16D3
:100E7000B14200D100BFC1F3421501F01F030126AA
:100E800006FA03F3012D02D19689334006E0022DC4
:100E900002D1168A334001E0968A33400C120126B3
:100EA00006FA04F41688344013B10CB1012000E0B6
:100EB000002070BD10B50022002340F66A14A14244
:100EC00000D100BF0A1201249440A3B2DC43048085
:100ED00010BD0000003801400044004000480040C0
:100EE000004C004000500040002400BF04E00120FE
:100EF0001B490855601C84B2B4F5C05FF7DB00F0F5
:100F000007FC00F0D0FB00F04FF800F094F815A1BA
:100F1000194800F0C3F800BF20E00121174800F095
:100F2000E0FB10B9164800F047F90821154800F019
:100F3000D8FB08B900F079F91021124800F0D1FB74
:100F400020B94FF4C051064800F0F3F90E4800886C
:100F500020B100F047FB00200B490880DDE70000CE
:100F60002E00002070726F746F636F6C2070726F50
:100F70006772616D210A00000038014000080140DD
:100F80002E180020001801402C000020704700BFE0
:100F9000FEE700BFFEE700BFFEE700BFFEE77047C9
:100FA000704770477047000010B586B00121880374
:100FB000FFF732FD01210520FFF72EFD4FF40070F1
:100FC000ADF8140018208DF8170003208DF81600D6
:100FD00005A96B48FFF764FA4FF48060ADF8140080
:100FE00004208DF8170005A96548FFF759FA654CEC
:100FF0004FF4E13001900020ADF80800ADF80A0090
:10100000ADF80C00ADF810000C20ADF80E0001A9F1
:101010002046FFF7A8FD012240F225512046FFF7A8
:101020003AFE01212046FFF72AFE40212046FFF725
:101030000EFF06B010BD08B54FF4E060FFF762F98F
:1010400025208DF8000000208DF8010001208DF88A
:1010500002008DF803006846FFF759F908BD70B526
:1010600004460D4629462046FFF776FE00BF802144
:101070002046FFF7DFFE0028F9D070BD2DE9F041D2
:1010800007460D461646002400BF295D3846FFF787
:10109000E6FF641CB442F8D3BDE8F08170B50646A3
:1010A0000C46002500BF615D3046FFF7D8FF6D1C80
:1010B000605D0028F7D170BD10B540F22551314870
:1010C000FFF7CEFE00283CD02E48FFF749FE2E4900
:1010D0000870084600782D492D4A127888542C480B
:1010E0000078022802D0032812D106E027482849B8
:1010F0000978405C274908800BE024482449097896
:10110000405C2449097800EB01202249088000E076
:1011100000BF00BF1F480088C01D1D4909788842D4
:101120000AD11C48008808301B4908800020194952
:1011300008801749087004E015480078401C1449DD
:10114000087020210F48FFF7B5FE10BD70B50446AA
:101150000D46E1B20B48FFF7FFFD00BF80210948B3
:10116000FFF768FE0028F9D0204670BD10B5044690
:1011700000BF20210348FFF75DFE0028F9D010BD15
:1011800000080140003801402900002068180020B4
:1011900042180020441800202C000020F948007854
:1011A000FF2805DAF7480078401CF649087002E08D
:1011B0000120F44908707047FEB50546002672B656
:1011C000002412E0052C04D0EF48005D0DF8040067
:1011D00003E0EC4800780DF80400012C03DD1DF855
:1011E00004003044C6B2601CC4B2072CEAD309E044
:1011F00028780DF804001DF804003044C6B26D1CB8
:10120000601CC4B20B2CF3DB0DF80460002406E074
:101210001DF80410DD48FFF722FF601CC4B20C2C3F
:10122000F6DBFFF7BBFF62B6FEBD7CB5002572B6EC
:1012300000240CE0052C04D0D548005D0DF8040016
:1012400003E0D04800780DF80400601CC4B2082CFC
:10125000F0D3022405E01DF804002844C5B2601C48
:10126000C4B2072CF7D30DF80450002406E01DF893
:101270000410C648FFF7F3FE601CC4B2082CF6DB6E
:10128000FFF78CFF62B67CBD2DE9F04107460D46A5
:101290009046002600242AE0BE48005DBE4908555D
:1012A000022C06D0032C08D0052C09D0062C10D116
:1012B0000BE0280AB849085510E0B7490D550DE074
:1012C000B0480078B449085508E0B34800F80480F5
:1012D00004E0B048005DB049085500BF00BF012CD4
:1012E00003DDAD48005D3044C6B2601C84B2072CFB
:1012F000D2D308E03878A84908550846005D304444
:10130000C6B2601C84B2E81DA042F3DCA2480655B8
:10131000002406E0A048015D9C48FFF7A0FE601C89
:1013200084B205F10800A042F4DCFFF737FFBDE806
:10133000F0812DE9F047ADF5007D07460C464FF0F2
:101340000008C2460026002572B6E11704EBD15111
:10135000491281B94FF000082046E11704EBD15142
:101360004912A4EB41211FFA81FA00225146384666
:10137000FFF78AFF86E0E21704EBD2525212A4EB89
:10138000422292BBE21704EBD2525212002A2DDD08
:101390002046E11704EBD151C1F34728A2460026AD
:1013A00020E0701C00F0FF09002505E038780DF8FA
:1013B00005007F1C681C85B2B5F5007FF6DBA8F13F
:1013C0000100B04206D100224FF400716846FFF7D9
:1013D0005BFF05E04A464FF400716846FFF754FF93
:1013E000701C86B24645DCDB4CE0FFE7E21704EBFD
:1013F000D2525212A4EB4222002A43D0E21704EB4D
:10140000D2525212002A3DDD2046E11704EBD151A1
:101410004912491C01F0FF08E11704EBD1514912B0
:10142000A4EB41211FFA81FA002629E0701C00F08C
:10143000FF09A8F10100B04211DD002505E0387870
:101440000DF805007F1C681C85B2B5F5007FF6DB42
:101450004A464FF400716846FFF716FF0EE000257C
:1014600005E038780DF805007F1C681C85B25545ED
:10147000F7DB002251466846FFF706FF701C86B274
:101480004645D3DB62B60DF5007DBDE8F0872DE95A
:10149000F04107460D460026B04672B6002428E00B
:1014A000022C03D100203D4908551AE0032C02D13B
:1014B0003A48075515E0042C02D13848055510E08C
:1014C000052C04D12F4800783449085509E0062C32
:1014D00003D100203149085503E03148005D2F4910
:1014E0000855012C03DD2D48005D3044C6B2601C58
:1014F000C4B2072CD4DBE12D15D10EE0294810F839
:101500000800264908550846005D3044C6B208F177
:10151000010000F0FF08601CC4B2142CEEDB601E5A
:101520001E490E5401E01D480655E12D0BD1002443
:1015300006E01A48015D1548FFF791FD601CC4B232
:10154000142CF6DB0AE0002406E01448015D0F4885
:10155000FFF785FD601CC4B2082CF6DBFFF71EFE0A
:1015600062B6BDE8F08110B50246F12920D1002015
:1015700005E00D4B1B5C0D4C2354431C98B290426C
:10158000F7DB2EE02A00002046180020003801403A
:101590004D180020541800208C1A00208C1C0020AC
:1015A0005B180020701A00206818002032180020F4
:1015B000F5290AD1002005E0324B1B5C324C235444
:1015C000431C98B29042F7DB0BE0F42909D10020CC
:1015D00005E02C4B1B5C2D4C2354431C98B29042CD
:1015E000F7DB10BD70B50025022405E02548005D3D
:1015F000284485B2601C84B225480088401EA04261
:10160000F4DCE9B222480088401E1E4A105C814288
:1016100034D110460079F1280CD006DCE1281BD02B
:10162000E2281ED0E32826D120E0F4280ED0F528A9
:1016300021D105E0F12116480088FFF794FF1CE056
:10164000F52113480088FFF78EFF16E0F4211048BB
:101650000088FFF788FF10E0E1210C20FFF717FF5B
:101660000BE0E2210020FFF712FF06E0E32100205B
:10167000FFF70DFF01E0002070BD01E00020FBE757
:1016800000BFF9E7681800207C1A00203A180020F3
:101690002C00002001B502E00098401E0090009848
:1016A0000028F9D108BD08B501210420FFF7B4F9DD
:1016B00001214020FFF7B0F90120ADF800004820DB
:1016C0008DF8030069461048FEF7EAFE1820ADF8D1
:1016D000000048208DF8030069460C48FEF7E0FE44
:1016E00008BD70B504460D4629462046FEF76BFF3F
:1016F00040B900BF29462046FEF765FF0028F9D013
:10170000002070BD0120FCE70008014000180140E6
:1017100010B56FF00400FEF744FE34480068344909
:10172000B0FBF1F0334908700846007800EB400147
:10173000C1EBC0104FF6FF7101EAC0002E490880CE
:1017400010BD01462B4A12784A434FF0E0235A61FC
:1017500000229A611A46126942F001021A6100BF22
:101760004FF0E022106900F001021AB100F480325B
:10177000002AF5D04FF0E022126922F001024FF06A
:10178000E0231A6100229A61704701461A4A1288C2
:101790004A434FF0E0235A6100229A611A461269C7
:1017A00042F001021A6100BF4FF0E022106900F020
:1017B00001021AB100F48032002AF5D04FF0E02285
:1017C000126922F001024FF0E0231A6100229A61AF
:1017D000704730B50446002505E04FF47A70FFF7F6
:1017E000D4FF681CC5B2A542F7D330BD000000206D
:1017F00000127A006218002064180020064C074D81
:1018000006E0E06840F0010394E8070098471034D0
:10181000AC42F6D3FEF76EFC94180008B41800082A
:1018200070B58C1810F8015B15F0070301D110F8A2
:10183000013B2A1106D110F8012B03E010F8016BCF
:1018400001F8016B5B1EF9D12B0705D40023521E52
:101850000DD401F8013BFAE710F8013BCB1A921CBA
:1018600003E013F8015B01F8015B521EF9D5A142B8
:10187000D8D3002070BD02E008C8121F08C1002A9A
:10188000FAD170477047002001E001C1121F002A01
:10189000FBD17047B4180008000000206818000051
:1018A00020180008181900086818002038080000DF
:1018B000861800081184A24A04680901020304067C
:1018C0000708090C69101D0204060812291601FFF9
:1018D00001FF01FF01FF01FF01FF01FF01FF01FF08
:1018E00001FF01FF01FF01FF01FF01FF01FF01FFF8
:1018F00001FF01FF01FF01FF01FF01FF01FF0117D0
:10190000051401020304135AA53B04F107114AF51B
:08191000074AF40791000000F2
:04000005080000ED02
:00000001FF
