:020000040800F2
:10000000A020002001010008690F00086B0F000804
:100010006F0F0008730F0008770F00080000000042
:100020000000000000000000000000007B0F00083E
:100030007D0F0008000000007F0F0008810F0008FE
:100040001B0100081B0100081B0100081B01000820
:100050001B0100081B0100081B0100081B01000810
:100060001B0100081B0100081B0100081B01000800
:100070001B0100081B0100081B0100081B010008F0
:100080001B0100081B0100081B0100081B010008E0
:100090001B0100081B0100081B0100081B010008D0
:1000A0001B0100081B0100081B0100081B010008C0
:1000B0001B0100081B0100081B0100081B010008B0
:1000C0001B0100081B0100081B0100081B010008A0
:1000D0001B010008951000081B0100081B01000807
:1000E0001B0100081B0100081B010008DFF80CD0F1
:1000F00001F064FB00480047E90E0008A020002042
:100100000648804706480047FEE7FEE7FEE7FEE7B1
:10011000FEE7FEE7FEE7FEE7FEE7FEE70302000874
:10012000ED0000080CB50020019000906C480068BC
:1001300040F480306A49086000BF6948006800F4F4
:10014000003000900198401C0190009818B9019867
:10015000B0F5A06FF1D16248006800F4003010B132
:100160000120009001E0002000900098012843D178
:100170005C48006840F010005A4908600846006872
:1001800020F0030008600846006840F002000860A4
:1001900053484068524948600846406848600846ED
:1001A000406840F4806048600846406820F47C1055
:1001B00048600846406840F4E81048600846006817
:1001C00040F08070086000BF4548006800F0007093
:1001D0000028F9D04248406820F0030040494860B8
:1001E0000846406840F00200486000BF3C48406854
:1001F00000F00C000828F9D10CBD10B5FFF792FFF4
:1002000010BD10B53648006840F001003449086060
:10021000084640683449084031494860084600684B
:10022000324908402E4908600846006820F48020C2
:1002300008600846406820F4FE0048604FF41F0044
:100240008860FFF7DAFF4FF000602949086010BDB1
:1002500010B5002100200022214B5B6803F00C0147
:1002600021B1042906D0082928D107E0214B224CCE
:10027000236027E01F4B204C236023E0184B5B6872
:1002800003F47010164B5B6803F48032022303EB17
:10029000904022B9194B4343174C23600DE0104B9B
:1002A0005B6803F4003323B1144B4343124C2360C7
:1002B00003E0104B4343104C236003E00D4B0E4C06
:1002C000236000BF00BF064B5B68C3F303130C4CF5
:1002D000E15C094B1B68CB40074C236010BD00005C
:1002E00000100240002002400000FFF8FFFFF6FE71
:1002F00008ED00E000127A000000002000093D0037
:100300000400002031490143314A1160704770B543
:10031000002100230F22C47804B32D4C246804F478
:10032000E064C4F5E064210AC1F10403CA404478E2
:1003300004FA03F18478144021430901254C06781E
:10034000A155047804F01F050124AC4005786D1117
:10035000AD0005F1E025C5F8004109E0047804F09E
:100360001F050124AC401C4D0678761145F8264047
:1003700070BD1A4A0A400243154B1B1F1A60704792
:1003800039B1134A121D12680243114B1B1D1A602A
:1003900006E00F4A121D126882430D4B1B1D1A60A6
:1003A0007047042808D14FF0E021096941F00401A9
:1003B0004FF0E022116107E04FF0E021096921F0E0
:1003C00004014FF0E0221161704700000000FA05BF
:1003D0000CED00E000E400E080E100E080FFFF1FA2
:1003E00010B50446CC48844208D10121042000F015
:1003F0002DFB0021042000F029FB46E0C748844281
:1004000008D10121082000F021FB0021082000F084
:100410001DFB3AE0C248844208D10121102000F0BF
:1004200015FB0021102000F011FB2EE0BD48844296
:1004300008D10121202000F009FB0021202000F03C
:1004400005FB22E0B848844208D10121402000F099
:10045000FDFA0021402000F0F9FA16E0B34884428A
:1004600008D10121802000F0F1FA0021802000F065
:10047000EDFA0AE0AE48844207D10121801500F070
:10048000E5FA0021A01500F0E1FA10BD10B5012138
:10049000084600F0DBFA0021012000F0D7FA10BD79
:1004A0002DE9F0410246002500260020002300240B
:1004B000002791F803C00CF00F0591F803C00CF071
:1004C000100CBCF1000F03D091F802C04CEA0505F6
:1004D00091F800C0BCF1000F31D0146800202BE06F
:1004E0004FF0010C0CFA00F3B1F800C00CEA03065F
:1004F0009E4220D183004FF00F0C0CFA03F7BC434F
:1005000005FA03FC4CEA040491F803C0BCF1280F7F
:1005100006D14FF0010C0CFA00FCC2F814C00AE03E
:1005200091F803C0BCF1480F05D14FF0010C0CFA53
:1005300000FCC2F810C0401C0828D1D31460B1F8E8
:1005400000C0BCF1FF0F34DD546800202EE000F144
:10055000080C4FF0010808FA0CF3B1F800C00CEADF
:1005600003069E4221D183004FF00F0C0CFA03F7D3
:10057000BC4305FA03FC4CEA040491F803C0BCF147
:10058000280F05D100F1080C08FA0CF8C2F8148005
:1005900091F803C0BCF1480F07D100F1080C4FF0EF
:1005A000010808FA0CF8C2F81080401C0828CED3C5
:1005B0005460BDE8F0814FF6FF7101800221817027
:1005C0000421C17070470246002093680B400BB1B4
:1005D000012000E0002070470146886880B2704723
:1005E00002460020D3680B400BB1012000E0002040
:1005F00070470146C86880B2704701617047416129
:1006000070470AB1016100E041617047C160704705
:100610004FF480320A43826181618261826982691A
:10062000704702460020434B18684FF6807318400D
:1006300040EA021008433F4B186070473E49C861CA
:100640007047F0B50A46002300240021002500F081
:100650000046B6F1004F02D1364EF16901E0354E49
:100660007168C0F3034583B200F44016B6F5401F2D
:1006700008D121F070612F4E766826F070662D4FFC
:100680007E6012E000F48016B6F5801F06D10326C6
:1006900006FA05F4A14341F0706106E0460D36010B
:1006A00003FA06F6B14341F0706122B1460D3601FE
:1006B00003FA06F6314300F00046B6F1004F02D1CE
:1006C0001C4EF16101E01B4E7160F0BD30B500229F
:1006D0008B071C0F0F2303FA04F2164B08338C1000
:1006E00053F824309343134C08348D1044F82530CC
:1006F00023468C1053F824308C07240F00FA04F49E
:1007000023430C4C08348D1044F8253030BD0A4981
:10071000DC3108607047000000080140000C014017
:10072000001001400014014000180140001C01406D
:10073000002001400000014000002042DF48006826
:1007400040F00100DD49086008464068DC49084087
:10075000DA49486008460068DA490840D749086025
:100760000846006820F4802008600846406820F4AD
:10077000FE0048604FF41F0088607047CF49096849
:1007800021F48031CD4A11601146096821F480219D
:100790001160B0F5803F03D0B0F5802F0ED106E098
:1007A000C649096841F48031C44A116007E0C34971
:1007B000096841F4A021C14A116000E000BF00BFF8
:1007C000704710B501460022002300204A11012A7B
:1007D00002D1BA4C236806E0022A02D1B74C236A40
:1007E00001E0B64C636A01F01F02012494401C40F2
:1007F0000CB1012000E0002010BD38B500200090B1
:100800000024002500BF3120FFF7DBFF05460098DC
:10081000401C00900098B0F5A06F01D0002DF2D0E0
:100820003120FFF7CEFF08B1012400E0002420466C
:1008300038BD01460020A14A106820F0F80040EAC7
:10084000C10010607047A049086070470246002050
:100850009A4B586820F47C1042EA01031843974BE6
:100860005860704798490866704701460020934ACF
:10087000506820F003000843506070478F4840687C
:1008800000F00C007047014600208C4A506820F0B0
:10089000F00008435060704701460020874A5068C6
:1008A00020F4E06008435060704701460020834A0E
:1008B000506820F4605040EAC1005060704729B190
:1008C0007E4A527A02437D4B5A7204E07B4A527A46
:1008D00082437A4B5A7270477B49D831086070471F
:1008E00001460020754A506820F44040084350609B
:1008F00070470021714A20321170704A82F820102E
:10090000012802D004280AD104E001216B4A2032D8
:10091000117005E00521694A2032117000E000BF26
:1009200000BF70476949086070476449096A01431C
:10093000624A11627047654944390860704730B5B2
:1009400000210022002400235C4D6D6805F00C019D
:1009500021B1042905D0082923D105E05C4D0560AB
:1009600022E05B4D05601FE0544D6D6805F4701288
:10097000524D6D6805F48034022505EB92421CB996
:10098000544D554305600BE04C4D6D6805F4003542
:100990001DB1504D5543056002E04D4D5543056076
:1009A00002E04B4D056000BF00BF444D6D6805F08F
:1009B000F0010909484D6B5C0568DD4045603F4D1D
:1009C0006D6805F4E061090A434D6B5C4568DD40E4
:1009D00085603A4D6D6805F46051C90A3E4D6B5C07
:1009E0004568DD40C560354D6D6805F44041890BB3
:1009F0003A4D6B5CC568B5FBF3F5056130BD29B1B7
:100A00002E4A526902432D4B5A6104E02B4A526927
:100A100082432A4B5A61704729B1284A926902439E
:100A2000264B9A6104E0254A92698243234B9A61DE
:100A3000704729B1214AD2690243204BDA6104E0B0
:100A40001E4AD26982431D4BDA61704729B11B4AA5
:100A5000D2680243194BDA6004E0184AD268824334
:100A6000164BDA60704729B1144A12690243134BDE
:100A70001A6104E0114A12698243104B1A617047EF
:100A800012494039086070470F49C86470470B49E4
:100A9000C87170470948406A40F080700749486251
:100AA000704701460020054A92680A400AB10120B9
:100AB00000E0002070470149887270470010024032
:100AC0000000FFF8FFFFF6FE0000424280044242B1
:100AD00000127A0000093D001400002024000020CC
:100AE00010B50446FB48844209D101218803FFF771
:100AF000ADFF00214FF48040FFF7A8FF32E0F64839
:100B0000844209D101214804FFF7ADFF00214FF4D1
:100B10000030FFF7A8FF25E0F048844209D1012109
:100B20008804FFF7A0FF00214FF48020FFF79BFF10
:100B300018E0EB48844209D10121C804FFF793FF74
:100B400000214FF40020FFF78EFF0BE0E5488442C0
:100B500008D101210805FFF786FF00214FF480101E
:100B6000FFF781FF10BD2DE9F04786B005460E4620
:100B70000024A24600BFA1460027B08900B100BFF3
:100B80002F462C8A4CF6FF700440F08804432C82D8
:100B9000AC894EF6F3100440B0883189084371895E
:100BA00008430443AC81AC8A4FF6FF400440B0894F
:100BB0000443AC8201A8FFF7C2FEC648874202D1B7
:100BC000DDF810A001E0DDF80CA0A88900F40040D9
:100BD00040B10AEBCA0000EB0A1031684900B0FBD3
:100BE000F1F807E00AEBCA0000EB0A10316889004F
:100BF000B0FBF1F86420B8FBF0F004012009642197
:100C000001FB1089A88900F4004040B1322000EBBC
:100C1000C900B0FBF1F000F00700044308E0322007
:100C200000EB09106421B0FBF1F000F00F00044369
:100C30002C8106B0BDE8F0874FF416510160002109
:100C40008180C18001810C21418100218181704717
:100C500010B502460020108A4FF2FF0318400B889F
:100C60004C8823438C882343CC8823431843108229
:100C700010BD0021018041808180C180704721B179
:100C8000828942F40052828104E082894DF6FF732A
:100C90001A4082817047F0B50346002400260025E3
:100CA000002040F66A17B94200D100BF1846C1F3D0
:100CB000421401F01F06012707FA06F5012C01D1A5
:100CC0000C3004E0022C01D1103000E014301AB1D5
:100CD00007682F43076002E00768AF430760F0BD75
:100CE0001AB1838A0B43838202E0838A8B43838217
:100CF0007047028A4FF6F0731A400282028A0A4352
:100D00000282704782894FF2FF731A408281828982
:100D10000A438281704721B1828942F002028281B6
:100D200004E082894FF6FD731A4082817047028A7F
:100D30004FF6DF731A400282028A0A43028270472A
:100D400021B1028A42F48042028204E0028A4BF618
:100D5000FF731A4002827047C1F308028280704715
:100D600001468888C0F308007047818941F001017D
:100D700081817047028BD2B20283028B42EA012248
:100D800002837047028B02F47F420283028B0A4384
:100D90000283704721B1828A42F02002828204E0FD
:100DA000828A4FF6DF731A408282704721B1828AAD
:100DB00042F01002828204E0828A4FF6EF731A40FA
:100DC0008282704721B1828A42F00802828204E066
:100DD000828A4FF6F7731A408282704721B1828966
:100DE00042F40042828103E08289C2F30E028281D2
:100DF000704721B1828A42F40062828204E0828AD2
:100E00004FF2FF731A4082827047828A4FF6FB735B
:100E10001A408282828A0A438282704721B1828A82
:100E200042F00202828204E0828A4FF6FD731A4089
:100E30008282704702460020B1F5007F00D100BFDA
:100E400013880B400BB1012000E00020704701F433
:100E50000072B2F5007F00D100BFCA430280704724
:100E600070B50246002400230025002040F66A16D3
:100E7000B14200D100BFC1F3421501F01F030126AA
:100E800006FA03F3012D02D19689334006E0022DC4
:100E900002D1168A334001E0968A33400C120126B3
:100EA00006FA04F41688344013B10CB1012000E0B6
:100EB000002070BD10B50022002340F66A14A14244
:100EC00000D100BF0A1201249440A3B2DC43048085
:100ED00010BD0000003801400044004000480040C0
:100EE000004C004000500040002400BF04E00120FE
:100EF00018490855601C84B2B4F5C05FF7DB00F0F8
:100F0000E7FB00F0B0FB00F03DF800F082F800BF16
:100F10001FE00121104800F0C4FB10B90F4800F099
:100F200035F908210E4800F0BCFB08B900F065F95E
:100F300010210B4800F0B5FB18B90521054800F059
:100F4000D8F90848008820B100F02DFB00200549A1
:100F50000880DEE72E000020000801402E18002047
:100F6000001801402C000020704700BFFEE700BFC2
:100F7000FEE700BFFEE700BFFEE77047704770471F
:100F80007047000010B586B001218803FFF744FDCB
:100F900001210520FFF740FD4FF40070ADF814006B
:100FA00018208DF8170003208DF8160005A9694850
:100FB000FFF776FA4FF48060ADF8140004208DF846
:100FC000170005A96348FFF76BFA634C4FF4E13053
:100FD00001900020ADF80800ADF80A00ADF80C0053
:100FE000ADF810000C20ADF80E0001A92046FFF767
:100FF000BAFD012240F225512046FFF74CFE0121A7
:101000002046FFF73CFE40212046FFF720FF06B0B8
:1010100010BD08B54FF4E060FFF774F925208DF896
:10102000000000208DF8010001208DF802008DF8ED
:1010300003006846FFF76BF908BD70B504460D461E
:1010400029462046FFF788FE00BF80212046FFF793
:10105000F1FE0028F9D070BD2DE9F04107460D469C
:101060001646002400BF295D3846FFF7E6FF641CE2
:10107000B442F8D3BDE8F08170B506460C460025B1
:1010800000BF615D3046FFF7D8FF6D1C605D002832
:10109000F7D170BD10B540F225512F48FFF7E0FEA3
:1010A00000283CD02C48FFF75BFE2C49087008460E
:1010B00000782B492B4A127888542A480078022855
:1010C00002D0032812D106E0254826490978405C61
:1010D000254908800BE0224822490978405C2249D2
:1010E000097800EB01202049088000E000BF00BF24
:1010F0001D480088C01D1B49097888420AD11A483A
:1011000000880830194908800020174908801549CF
:10111000087004E013480078401C1249087010BDA4
:1011200070B504460D46E1B20B48FFF715FE00BF4F
:1011300080210948FFF77EFE0028F9D0204670BDC7
:1011400010B5044600BF20210348FFF773FE0028B6
:10115000F9D010BD000801400038014029000020EE
:101160006818002042180020441800202C0000209D
:10117000FA480078FF2805DAF8480078401CF7495B
:10118000087002E00120F54908707047FEB5054679
:10119000002672B6002410E0052C04D0F048005D53
:1011A0000DF8040003E0ED4800780DF804001DF888
:1011B00004003044C6B2601CC4B2072CECD309E072
:1011C00028780DF804001DF804003044C6B26D1CE8
:1011D000601CC4B20B2CF3DB0DF80460002406E0A5
:1011E0001DF80410DF48FFF728FF601CC4B20C2C68
:1011F000F6DBFFF7BDFF62B6FEBD7CB5002572B61B
:10120000002410E0052C04D0D748005D0DF8040040
:1012100003E0D24800780DF804001DF804002844CB
:10122000C5B2601CC4B2082CECD30DF804500024E5
:1012300006E01DF80410CB48FFF7FFFE601CC4B2A7
:10124000082CF6DBFFF794FF62B67CBD2DE9F04178
:1012500007460D4690460026002428E0C348005D5E
:10126000C3490855022C06D0032C08D0052C09D000
:10127000062C10D10BE0280ABD49085510E0BC49E6
:101280000D550DE0B5480078B949085508E0B84853
:1012900000F8048004E0B548005DB549085500BF7A
:1012A00000BFB348005D3044C6B2601C84B2072C56
:1012B000D4D308E03878AE4908550846005D30447C
:1012C000C6B2601C84B2E81DA042F3DCA8480655F3
:1012D000002406E0A648015DA248FFF7AEFE601CB0
:1012E00084B205F10800A042F4DCFFF741FFBDE83D
:1012F000F0812DE9F047ADF5007D07460C464FF033
:101300000008C2460026002572B6E11704EBD15151
:10131000491281B94FF000082046E11704EBD15182
:101320004912A4EB41211FFA81FA002251463846A6
:10133000FFF78CFF86E0E21704EBD2525212A4EBC7
:10134000422292BBE21704EBD2525212002A2DDD48
:101350002046E11704EBD151C1F34728A2460026ED
:1013600020E0701C00F0FF09002505E038780DF83A
:1013700005007F1C681C85B2B5F5007FF6DBA8F17F
:101380000100B04206D100224FF400716846FFF719
:101390005DFF05E04A464FF400716846FFF756FFCF
:1013A000701C86B24645DCDB4CE0FFE7E21704EB3D
:1013B000D2525212A4EB4222002A43D0E21704EB8D
:1013C000D2525212002A3DDD2046E11704EBD151E2
:1013D0004912491C01F0FF08E11704EBD1514912F1
:1013E000A4EB41211FFA81FA002629E0701C00F0CD
:1013F000FF09A8F10100B04211DD002505E03878B1
:101400000DF805007F1C681C85B2B5F5007FF6DB82
:101410004A464FF400716846FFF718FF0EE00025BA
:1014200005E038780DF805007F1C681C85B255452D
:10143000F7DB002251466846FFF708FF701C86B2B2
:101440004645D3DB62B60DF5007DBDE8F0872DE99A
:10145000F04107460D460026B04672B6002426E04D
:10146000022C03D10020434908551AE0032C02D175
:101470004048075515E0042C02D13E48055510E0C0
:10148000052C04D1354800783A49085509E0062C66
:1014900003D100203749085503E03748005D35493E
:1014A00008553448005D3044C6B2601CC4B2072CF5
:1014B000D6DBE12D15D10EE0304810F808002D499B
:1014C00008550846005D3044C6B208F1010000F03E
:1014D000FF08601CC4B2142CEEDB601E25490E54BC
:1014E00001E024480655E12D0BD1002406E02148F7
:1014F000015D1C48FFF7A1FD601CC4B2142CF6DB93
:101500000AE0002406E01B48015D1648FFF795FD40
:10151000601CC4B2082CF6DBFFF72AFE62B6BDE8F9
:10152000F08110B50246F1290AD1002005E0144BE4
:101530001B5C144C2354431C98B29042F7DB31E0FF
:10154000F52923D1002005E00D4B1B5C0E4C2354E4
:10155000431C98B29042F7DB24E000002A000020F0
:1015600046180020003801404D1800205418002073
:101570008C1A00208C1C00205B180020701A0020A0
:1015800068180020321800207C1A0020F42909D1A4
:10159000002005E02C4B1B5C2C4C2354431C98B2C0
:1015A0009042F7DB10BD70B50025002405E0264809
:1015B000005D284485B2601C84B225480088401E26
:1015C000A042F4DCE9B222480088401E1E4A105CAA
:1015D000814234D110460079F1280CD006DCE12894
:1015E0001BD0E2281ED0E32826D120E0F4280ED01C
:1015F000F52821D105E0F12115480088FFF791FF7A
:101600001CE0F52112480088FFF78BFF16E0F4215B
:101610000F480088FFF785FF10E0E1210C20FFF75D
:1016200016FF0BE0E2210020FFF711FF06E0E321A7
:101630000020FFF70CFF01E0002070BD01E000205A
:10164000FBE700BFF9E70000681800203A18002007
:101650002C00002001B502E00098401E0090009888
:101660000028F9D108BD08B501210420FFF7D4F9FD
:1016700001214020FFF7D0F90120ADF800004820FB
:101680008DF8030069461048FEF70AFF1820ADF8F0
:10169000000048208DF8030069460C48FEF700FF63
:1016A00008BD70B504460D4629462046FEF78BFF5F
:1016B00040B900BF29462046FEF785FF0028F9D033
:1016C000002070BD0120FCE7000801400018014027
:1016D00010B56FF00400FEF764FE3448006834492A
:1016E000B0FBF1F0334908700846007800EB400188
:1016F000C1EBC0104FF6FF7101EAC0002E4908800F
:1017000010BD01462B4A12784A434FF0E0235A613C
:1017100000229A611A46126942F001021A6100BF62
:101720004FF0E022106900F001021AB100F480329B
:10173000002AF5D04FF0E022126922F001024FF0AA
:10174000E0231A6100229A61704701461A4A128802
:101750004A434FF0E0235A6100229A611A46126907
:1017600042F001021A6100BF4FF0E022106900F060
:1017700001021AB100F48032002AF5D04FF0E022C5
:10178000126922F001024FF0E0231A6100229A61EF
:10179000704730B50446002505E04FF47A70FFF736
:1017A000D4FF681CC5B2A542F7D330BD00000020AD
:1017B00000127A006218002064180020064C074DC1
:1017C00006E0E06840F0010394E807009847103411
:1017D000AC42F6D3FEF78EFC5418000874180008CB
:1017E00070B58C1810F8015B15F0070301D110F8E3
:1017F000013B2A1106D110F8012B03E010F8016B10
:1018000001F8016B5B1EF9D12B0705D40023521E92
:101810000DD401F8013BFAE710F8013BCB1A921CFA
:1018200003E013F8015B01F8015B521EF9D5A142F8
:10183000D8D3002070BD02E008C8121F08C1002ADA
:10184000FAD170477047002001E001C1121F002A41
:10185000FBD17047741800080000002068180000D1
:10186000E0170008D81800086818002038080000A1
:10187000461800081184A24A0468090102030406FC
:101880000708090C69101D0204060812291601FF39
:1018900001FF01FF01FF01FF01FF01FF01FF01FF48
:1018A00001FF01FF01FF01FF01FF01FF01FF01FF38
:1018B00001FF01FF01FF01FF01FF01FF01FF011710
:1018C000051401020304135AA53B04F107114AF55C
:0818D000074AF4079100000033
:04000005080000ED02
:00000001FF
